:020000040000FA
:100000000A128A11EC2F00308A000408840A820741
:100010000034543469346D3465343A342034003457
:0E00200044346134743465343A34203400348E
:10011E000A128A11C2200A128A11831603131114AD
:10012E0008000A128A11C2200A128A1183160313BA
:10013E00111508000A128A11C2200A128A1183129E
:10014E000313200893000800013400340A340034ED
:10015E001C3400340C3400341434003400300A12D1
:10016E008A11E2200A128A1101300A128A11E22043
:10017E000A128A1108008316031311081F39031D72
:10018E00C928CA28C2281419CD28CE28C22808008A
:10019E007E088A007F0882000A128A11CF200A1276
:1001AE008A118000840A04087D0603190034FF0AB0
:1001BE000319FE0AD328F3008312031308117308E0
:1001CE000A128A11FC200A128A118312031388154F
:1001DE000B30F2006230F100F10BF328F20BF32832
:1001EE0000008312031388110800F000701C002910
:1001FE0001290529831203130816082983120313F4
:10020E000812F01C0B290C290E2988160F298812AA
:10021E00701D122913291529081716290813F01D08
:10022E0019291A291C2988171D2988130800F70077
:10023E00F501F60135297508770784000A128A112F
:10024E0003200A128A110A128A11EA210A128A114D
:10025E000130F5070318F60A0030F6077508770720
:10026E0084000A128A1103200A128A11003A031D11
:10027E004129422922290800F401F501701C482960
:10028E0049294F297208F4070318F50A7308F50770
:10029E0001300310F20DF30DFF3E031D5029013006
:1002AE000310F10CF00CFF3E031D5729700871046A
:1002BE00031D6229632945297508F1007408F000B1
:1002CE0008000F307605F80000307705F900760E3D
:1002DE000F39F000770EF039F004770E0F39F10078
:1002EE00F030F11D0030F1040A30F2000030F3005E
:1002FE000A128A1143210A128A1178087007F60031
:10030E0079080318790A7107F70008000A128A1192
:10031E00C2200A128A118316031391150A128A112A
:10032E00C2200A128A11831203131308F200F3017A
:10033E007208F4007308F5000A128A11C2200A121C
:10034E008A11700871040319AD29B129831603139C
:10035E009116B42983160313911211167508F10024
:10036E007408F00008000A30F0000030F1007A083E
:10037E00F3007908F2000A128A11C4230A128A11B4
:10038E007008FB007108FC00FB0EFC0EF030FC0543
:10039E007B080F39FC04F030FB050A30F00000300A
:1003AE00F1007A08F3007908F2000A128A110E237E
:1003BE000A128A1170087B07F90071080318710A76
:1003CE007C07FA000800F40074080F39F100710878
:1003DE00F2007408F039F1007108F3008312031370
:1003EE0008157308F10004300310F10CFF3E031DD5
:1003FE00FB2971080A128A11FC200A128A11831233
:10040E00031388151A30F100F10B0B2A000083122A
:10041E000313881172080A128A11FC200A128A111B
:10042E008312031388151A30F100F10B1C2A0000F9
:10043E0083120313881108000030FC000030FB000B
:10044E000030FA000030F900701C2E2A2F2A462A9E
:10045E007408F907750803110318013E0319382AA9
:10046E00FA07760803110318013E03193F2AFB070A
:10047E00770803110318013E0319462AFC070130C1
:10048E00F8000310F40DF50DF60DF70DF80B482AD4
:10049E0001300310F30CF20CF10CF00CFF3E031DB7
:1004AE00502A7308720471047004031D5F2A602AB7
:1004BE002B2A7C08F3007B08F2007A08F1007908F9
:1004CE00F0000800F7007703031D6E2A6F2A922AA8
:1004DE0074087F3EF5007508FA007A08F5000430BE
:1004EE000310F50CFF3E031D772A7508F6007608FB
:1004FE00F8007A080F39F5007508F90078080A1225
:10050E008A11E2200A128A1179080A128A11E2204F
:10051E000A128A11BA2A02307706031D972A982AE0
:10052E00BA2A7408BF3EF5007508FA007A08F5007D
:10053E0004300310F50CFF3E031DA02A7508F600CB
:10054E007608F8007A080F39F5007508F900780872
:10055E000A128A11E2200A128A1179080A128A11E5
:10056E00E2200A128A110800831603138715071654
:10057E002830831203139400831603139101831200
:10058E0003132D08B1002E08B2002F08B300300857
:10059E00B40002300310B10DB20DB30DB40DFF3E19
:1005AE00031DD12A3408F3003308F2003208F1009B
:1005BE003108F0000030F7000030F6000030F50092
:1005CE006430F4000A128A1123220A128A11730867
:1005DE0083120313A3007208A2007108A100700811
:1005EE00A0000030A7007A30A6001230A50000301F
:1005FE00A4000A128A112B240A128A1183120313E1
:10060E002008FF3E83160313930094010800F601A1
:10061E00F31F122B132B1A2BF209F309F20A0319EB
:10062E00F30AF601F60AF11F1D2B1E2B232BF009E0
:10063E00F109F00A0319F10A700871040319282B45
:10064E00292B582BF501F50A372B01300310F00D2D
:10065E00F10DFF3E031D2D2B0130F4007408F5073C
:10066E00F11F3A2B3B2B2C2B71087302031D412BD0
:10067E0070087202031C442B452B4B2B7008F202A0
:10068E007108031CF303F30201300310F10CF00C9C
:10069E00FF3E031D4C2B0130F502031D572B582B2B
:1006AE003B2B760803195C2B5D2B622BF209F309A9
:1006BE00F20A0319F30A7308F1007208F000080039
:1006CE0000300A128A11FC200A128A113430F50009
:1006DE00F130F400F40B712BF50B712B762B0330EC
:1006EE000A128A11E2200A128A110D30F500FB302F
:1006FE00F400F40B802BF50B802B852B03300A12A4
:10070E008A11E2200A128A111D30F5009130F40090
:10071E00F40B8F2BF50B8F2B03300A128A11E2206C
:10072E000A128A1102300A128A11E2200A128A1162
:10073E0002300A128A11E2200A128A1108300A12B5
:10074E008A11E2200A128A1100300A128A11E2205E
:10075E000A128A110C300A128A11E2200A128A1128
:10076E0000300A128A11E2200A128A1106300A1289
:10077E008A11E2200A128A110800F601F11FC82B15
:10078E00C92BD02BF009F109F00A0319F10AF60171
:10079E00F60AF31FD32BD42BDD2BF209F309F20A41
:1007AE000319F30A0130F4007408F606F701F80194
:1007BE00700871040319E42BE52B1C2CF501F50AC6
:1007CE00F32B01300310F00DF10DFF3E031DE92B4D
:1007DE000130F4007408F507F11FF62BF72BE82B08
:1007EE0001300310F70DF80DFF3E031DF82B7108B5
:1007FE007302031D042C70087202031C072C082CB4
:10080E000F2C7008F2027108031CF303F302771425
:10081E0001300310F10CF00CFF3E031D102C0130C3
:10082E00F502031D1B2C1C2CF72B76080319202C0C
:10083E00212C262CF709F809F70A0319F80A78086B
:10084E00F1007708F0000800003083120313AB00AC
:10085E000030AA000030A9000030A80023082204AE
:10086E002104200403193C2C3D2C8A2CAC01AC0A2B
:10087E004D2C0130FD000310A00DA10DA20DA30DF6
:10088E00FD0B422C0130FD007D08AC07A31F502C40
:10089E00512C402C0130FD000310A80DA90DAA0DFE
:1008AE00AB0DFD0B532C23082702031D682C2208C9
:1008BE002602031D682C21082502031D682C200822
:1008CE002402031C6B2C6C2C7B2C2008A402210808
:1008DE00031C210FA5022208031C220FA6022308C7
:1008EE00031C230FA702281401300310A30CA20C23
:1008FE00A10CA00CFF3E031D7C2C0130AC02031D8D
:10090E00892C8A2C512C2B08A3002A08A200290816
:10091E00A1002808A00008000A128A118F200A12CE
:10092E008A11D03083120313A0000030A1000A12E6
:10093E008A11A1200A128A11003083120313A0001B
:10094E00A1000A128A11A1200A128A11831203131E
:10095E004508FA004408F9000A128A11BA210A124F
:10096E008A117A0883120313A1007908A0000A12D3
:10097E008A11A1200A128A11831203134F08FA005A
:10098E004E08F9000A128A11BA210A128A117A083F
:10099E0083120313A1007908A0000A128A11A12064
:1009AE000A128A11831203134708FA004608F90047
:1009BE000A128A11BA210A128A117A0883120313B3
:1009CE00A1007908A0000A128A11A1200A128A1128
:1009DE00013083120313A0000030A1000A128A1105
:1009EE00A1200A128A11831203134908FA0048083B
:1009FE00F9000A128A11BA210A128A117A08831290
:100A0E000313A1007908A0000A128A11A1200A126C
:100A1E008A11831203134B08FA004A08F9000A12CE
:100A2E008A11BA210A128A117A0883120313A100BD
:100A3E007908A0000A128A11A1200A128A118312C3
:100A4E0003134D08FA004C08F9000A128A11BA2154
:100A5E000A128A117A0883120313A1007908A000E2
:100A6E000A128A11A1200A128A110A128A119820DA
:100A7E000A128A1108000A128A118F200A128A118C
:100A8E00D03083120313A0000030A1000A128A1185
:100A9E00A1200A128A11003083120313A000A100B4
:100AAE000A128A11A1200A128A110A128A1198209A
:100ABE000A128A110A128A118F200A128A11D13053
:100ACE0083120313A0000030A1000A128A11A12084
:100ADE000A128A110130F0000030F1000A128A1158
:100AEE008D210A128A117108F7007008F6000A1299
:100AFE008A1168210A128A11770883120313C5001E
:100B0E007608C4000130F0000030F1000A128A119C
:100B1E008D210A128A117108F7007008F6000A1268
:100B2E008A1168210A128A11770883120313CF00E3
:100B3E007608CE000130F0000030F1000A128A1162
:100B4E008D210A128A117108F7007008F6000A1238
:100B5E008A1168210A128A11770883120313C700BB
:100B6E007608C6000130F0000030F1000A128A113A
:100B7E008D210A128A110130F0000030F1000A12A4
:100B8E008A118D210A128A117108F7007008F60079
:100B9E000A128A1168210A128A1177088312031326
:100BAE00C9007608C8000130F0000030F1000A12CA
:100BBE008A118D210A128A117108F7007008F60049
:100BCE000A128A1168210A128A11770883120313F6
:100BDE00CB007608CA000130F0000030F1000A1296
:100BEE008A118D210A128A117108F7007008F60019
:100BFE000A128A1168210A128A11770883120313C6
:100C0E00CD007608CC000A128A1198200A128A1199
:100C1E000A128A118F200A128A11D13083120313FD
:100C2E00A0000030A1000A128A11A1200A128A1116
:100C3E000130F0000030F1000A128A118D210A12E3
:100C4E008A110A128A1198200A128A110800831634
:100C5E00031388010A128A1167230A128A110030BF
:100C6E0083120313B0000030AF000030AE006430CA
:100C7E00AD000A128A11BB220A128A110A128A11B7
:100C8E0093240A128A110A128A1142250A128A1113
:100C9E000A30F0000030F100831203134508F30010
:100CAE004408F2000A128A110E230A128A117008E1
:100CBE0083120313B5003508B8000A30F000003077
:100CCE00F1004508F3004408F2000A128A11C42309
:100CDE000A128A11700883120313B5003508B90081
:100CEE000A30F0000030F1004F08F3004E08F20019
:100CFE000A128A110E230A128A1170088312031324
:100D0E00B5003508BA000A30F0000030F1004F0887
:100D1E00F3004E08F2000A128A11C4230A128A1135
:100D2E00700883120313B5003508BB000A30F000BB
:100D3E000030F1004708F3004608F2000A128A114B
:100D4E000E230A128A11700883120313B500350898
:100D5E00BC000A30F0000030F1004708F3004608EE
:100D6E00F2000A128A11C4230A128A117008831221
:100D7E000313B5003508BD000A30F0000030F10055
:100D8E004908F3004808F2000A128A110E230A12CB
:100D9E008A11700883120313B5003508BE000A309D
:100DAE00F0000030F1004908F3004808F2000A1282
:100DBE008A11C4230A128A11700883120313B50014
:100DCE003508BF000A30F0000030F1004B08F30088
:100DDE004A08F2000A128A110E230A128A117008AA
:100DEE0083120313B5003508C0000A30F00000303E
:100DFE00F1004B08F3004A08F2000A128A11C423CC
:100E0E000A128A11700883120313B5003508C10047
:100E1E000A30F0000030F1004D08F3004C08F200EB
:100E2E000A128A110E230A128A11700883120313F2
:100E3E00B5003508C2000A30F0000030F1004D0850
:100E4E00F3004C08F2000A128A11C4230A128A1106
:100E5E00700883120313B5003508C3000A128A11F5
:100E6E00B5200A128A11F401F40A01300A128A110D
:100E7E0069220A128A1101300A128A111E210A12DF
:100E8E008A11831203133D08303E0A128A11EA2199
:100E9E000A128A11831203133C08303E0A128A1179
:100EAE00EA210A128A113A300A128A11EA210A122A
:100EBE008A11831203133B08303E0A128A11EA216B
:100ECE000A128A11831203133A08303E0A128A114B
:100EDE00EA210A128A113A300A128A11EA210A12FA
:100EEE008A11831203133908303E0A128A11EA213D
:100EFE000A128A11831203133808303E0A128A111D
:100F0E00EA210A128A11F401F40A02300A128A1135
:100F1E0069220A128A1108300A128A111E210A1237
:100F2E008A11831203133F08303E0A128A11EA21F6
:100F3E000A128A11831203133E08303E0A128A11D6
:100F4E00EA210A128A113A300A128A11EA210A1289
:100F5E008A11831203134108303E0A128A11EA21C4
:100F6E000A128A11831203134008303E0A128A11A4
:100F7E00EA210A128A113A300A128A11EA210A1259
:100F8E008A11831203134308303E0A128A11EA2192
:100F9E000A128A11831203134208303E0A128A1172
:100FAE00EA210A128A11063083120313B700133096
:100FBE00B600AD30B500B50BE22FB60BE22FB70B76
:100FCE00E22F4A2E0A128A11002883134E30FD009A
:100FDE000030FE00AB30FF00443084000A128A114C
:100FEE00D3200A128A11CE01CF0183010A128A116F
:020FFE002E2E95
:04400E00F7FFFFFFBA
:00000001FF
